{
  "contractName": "EPB",
  "abi": [
    {
      "inputs": [],
      "stateMutability": "nonpayable",
      "type": "constructor"
    },
    {
      "inputs": [
        {
          "internalType": "uint256",
          "name": "",
          "type": "uint256"
        }
      ],
      "name": "evidences",
      "outputs": [
        {
          "internalType": "string",
          "name": "id",
          "type": "string"
        },
        {
          "internalType": "uint256",
          "name": "case_no",
          "type": "uint256"
        },
        {
          "internalType": "string",
          "name": "case_name",
          "type": "string"
        },
        {
          "internalType": "string",
          "name": "file_name",
          "type": "string"
        },
        {
          "internalType": "string",
          "name": "file_type",
          "type": "string"
        },
        {
          "internalType": "string",
          "name": "file_hash_ipfs",
          "type": "string"
        },
        {
          "internalType": "string",
          "name": "status",
          "type": "string"
        }
      ],
      "stateMutability": "view",
      "type": "function",
      "constant": true
    },
    {
      "inputs": [
        {
          "internalType": "string",
          "name": "_id",
          "type": "string"
        },
        {
          "internalType": "uint256",
          "name": "_caseNo",
          "type": "uint256"
        },
        {
          "internalType": "string",
          "name": "_caseName",
          "type": "string"
        },
        {
          "internalType": "string",
          "name": "_fileName",
          "type": "string"
        },
        {
          "internalType": "string",
          "name": "_fileType",
          "type": "string"
        },
        {
          "internalType": "string",
          "name": "_fileHash",
          "type": "string"
        },
        {
          "internalType": "string",
          "name": "_status",
          "type": "string"
        }
      ],
      "name": "insertEvidence",
      "outputs": [],
      "stateMutability": "nonpayable",
      "type": "function"
    },
    {
      "inputs": [
        {
          "internalType": "uint256",
          "name": "_caseNo",
          "type": "uint256"
        }
      ],
      "name": "viewEvidence",
      "outputs": [
        {
          "components": [
            {
              "internalType": "string",
              "name": "id",
              "type": "string"
            },
            {
              "internalType": "uint256",
              "name": "case_no",
              "type": "uint256"
            },
            {
              "internalType": "string",
              "name": "case_name",
              "type": "string"
            },
            {
              "internalType": "string",
              "name": "file_name",
              "type": "string"
            },
            {
              "internalType": "string",
              "name": "file_type",
              "type": "string"
            },
            {
              "internalType": "string",
              "name": "file_hash_ipfs",
              "type": "string"
            },
            {
              "internalType": "string",
              "name": "status",
              "type": "string"
            }
          ],
          "internalType": "struct EPB.Evidence[]",
          "name": "",
          "type": "tuple[]"
        }
      ],
      "stateMutability": "view",
      "type": "function",
      "constant": true
    },
    {
      "inputs": [
        {
          "internalType": "uint256",
          "name": "_caseNo",
          "type": "uint256"
        }
      ],
      "name": "viewEvidenceByCaseNo",
      "outputs": [
        {
          "components": [
            {
              "internalType": "string",
              "name": "id",
              "type": "string"
            },
            {
              "internalType": "uint256",
              "name": "case_no",
              "type": "uint256"
            },
            {
              "internalType": "string",
              "name": "case_name",
              "type": "string"
            },
            {
              "internalType": "string",
              "name": "file_name",
              "type": "string"
            },
            {
              "internalType": "string",
              "name": "file_type",
              "type": "string"
            },
            {
              "internalType": "string",
              "name": "file_hash_ipfs",
              "type": "string"
            },
            {
              "internalType": "string",
              "name": "status",
              "type": "string"
            }
          ],
          "internalType": "struct EPB.Evidence[]",
          "name": "",
          "type": "tuple[]"
        }
      ],
      "stateMutability": "view",
      "type": "function",
      "constant": true
    },
    {
      "inputs": [
        {
          "internalType": "string",
          "name": "_id",
          "type": "string"
        },
        {
          "internalType": "uint256",
          "name": "_caseNo",
          "type": "uint256"
        },
        {
          "internalType": "string",
          "name": "_caseName",
          "type": "string"
        },
        {
          "internalType": "string",
          "name": "_fileName",
          "type": "string"
        },
        {
          "internalType": "string",
          "name": "_fileType",
          "type": "string"
        },
        {
          "internalType": "string",
          "name": "_status",
          "type": "string"
        }
      ],
      "name": "insertNewEvidence",
      "outputs": [],
      "stateMutability": "nonpayable",
      "type": "function"
    }
  ],
  "bytecode": "0x608060405234801561001057600080fd5b50336000806101000a81548173ffffffffffffffffffffffffffffffffffffffff021916908373ffffffffffffffffffffffffffffffffffffffff160217905550611dea806100606000396000f3fe608060405234801561001057600080fd5b50600436106100575760003560e01c80632e4546cd1461005c578063b9add9b014610092578063bd357ede146100ae578063d09b1494146100de578063f2b5cc171461010e575b600080fd5b610076600480360381019061007191906112a5565b61012a565b6040516100899796959493929190611371565b60405180910390f35b6100ac60048036038101906100a7919061153f565b6104ac565b005b6100c860048036038101906100c391906112a5565b610631565b6040516100d59190611863565b60405180910390f35b6100f860048036038101906100f391906112a5565b610ba5565b6040516101059190611863565b60405180910390f35b61012860048036038101906101239190611885565b61108b565b005b6001818154811061013a57600080fd5b906000526020600020906007020160009150905080600001805461015d906119cd565b80601f0160208091040260200160405190810160405280929190818152602001828054610189906119cd565b80156101d65780601f106101ab576101008083540402835291602001916101d6565b820191906000526020600020905b8154815290600101906020018083116101b957829003601f168201915b5050505050908060010154908060020180546101f1906119cd565b80601f016020809104026020016040519081016040528092919081815260200182805461021d906119cd565b801561026a5780601f1061023f5761010080835404028352916020019161026a565b820191906000526020600020905b81548152906001019060200180831161024d57829003601f168201915b50505050509080600301805461027f906119cd565b80601f01602080910402602001604051908101604052809291908181526020018280546102ab906119cd565b80156102f85780601f106102cd576101008083540402835291602001916102f8565b820191906000526020600020905b8154815290600101906020018083116102db57829003601f168201915b50505050509080600401805461030d906119cd565b80601f0160208091040260200160405190810160405280929190818152602001828054610339906119cd565b80156103865780601f1061035b57610100808354040283529160200191610386565b820191906000526020600020905b81548152906001019060200180831161036957829003601f168201915b50505050509080600501805461039b906119cd565b80601f01602080910402602001604051908101604052809291908181526020018280546103c7906119cd565b80156104145780601f106103e957610100808354040283529160200191610414565b820191906000526020600020905b8154815290600101906020018083116103f757829003601f168201915b505050505090806006018054610429906119cd565b80601f0160208091040260200160405190810160405280929190818152602001828054610455906119cd565b80156104a25780601f10610477576101008083540402835291602001916104a2565b820191906000526020600020905b81548152906001019060200180831161048557829003601f168201915b5050505050905087565b60008054906101000a900473ffffffffffffffffffffffffffffffffffffffff1673ffffffffffffffffffffffffffffffffffffffff163373ffffffffffffffffffffffffffffffffffffffff161461053a576040517f08c379a000000000000000000000000000000000000000000000000000000000815260040161053190611a70565b60405180910390fd5b60016040518060e0016040528089815260200188815260200187815260200186815260200185815260200184815260200183815250908060018154018082558091505060019003906000526020600020906007020160009091909190915060008201518160000190816105ad9190611c3c565b506020820151816001015560408201518160020190816105cd9190611c3c565b5060608201518160030190816105e39190611c3c565b5060808201518160040190816105f99190611c3c565b5060a082015181600501908161060f9190611c3c565b5060c08201518160060190816106259190611c3c565b50505050505050505050565b606060008054906101000a900473ffffffffffffffffffffffffffffffffffffffff1673ffffffffffffffffffffffffffffffffffffffff163373ffffffffffffffffffffffffffffffffffffffff16146106c1576040517f08c379a00000000000000000000000000000000000000000000000000000000081526004016106b890611a70565b60405180910390fd5b6000805b6001805490508110156107205783600182815481106106e7576106e6611d0e565b5b9060005260206000209060070201600101540361070d57818061070990611d6c565b9250505b808061071890611d6c565b9150506106c5565b5060008167ffffffffffffffff81111561073d5761073c611414565b5b60405190808252806020026020018201604052801561077657816020015b61076361121e565b81526020019060019003908161075b5790505b5090506000805b600180549050811015610b9957856001828154811061079f5761079e611d0e565b5b90600052602060002090600702016001015403610b8657600181815481106107ca576107c9611d0e565b5b90600052602060002090600702016040518060e00160405290816000820180546107f3906119cd565b80601f016020809104026020016040519081016040528092919081815260200182805461081f906119cd565b801561086c5780601f106108415761010080835404028352916020019161086c565b820191906000526020600020905b81548152906001019060200180831161084f57829003601f168201915b505050505081526020016001820154815260200160028201805461088f906119cd565b80601f01602080910402602001604051908101604052809291908181526020018280546108bb906119cd565b80156109085780601f106108dd57610100808354040283529160200191610908565b820191906000526020600020905b8154815290600101906020018083116108eb57829003601f168201915b50505050508152602001600382018054610921906119cd565b80601f016020809104026020016040519081016040528092919081815260200182805461094d906119cd565b801561099a5780601f1061096f5761010080835404028352916020019161099a565b820191906000526020600020905b81548152906001019060200180831161097d57829003601f168201915b505050505081526020016004820180546109b3906119cd565b80601f01602080910402602001604051908101604052809291908181526020018280546109df906119cd565b8015610a2c5780601f10610a0157610100808354040283529160200191610a2c565b820191906000526020600020905b815481529060010190602001808311610a0f57829003601f168201915b50505050508152602001600582018054610a45906119cd565b80601f0160208091040260200160405190810160405280929190818152602001828054610a71906119cd565b8015610abe5780601f10610a9357610100808354040283529160200191610abe565b820191906000526020600020905b815481529060010190602001808311610aa157829003601f168201915b50505050508152602001600682018054610ad7906119cd565b80601f0160208091040260200160405190810160405280929190818152602001828054610b03906119cd565b8015610b505780601f10610b2557610100808354040283529160200191610b50565b820191906000526020600020905b815481529060010190602001808311610b3357829003601f168201915b505050505081525050838381518110610b6c57610b6b611d0e565b5b60200260200101819052508180610b8290611d6c565b9250505b8080610b9190611d6c565b91505061077d565b50819350505050919050565b60606000805b600180549050811015610c06578360018281548110610bcd57610bcc611d0e565b5b90600052602060002090600702016001015403610bf3578180610bef90611d6c565b9250505b8080610bfe90611d6c565b915050610bab565b5060008167ffffffffffffffff811115610c2357610c22611414565b5b604051908082528060200260200182016040528015610c5c57816020015b610c4961121e565b815260200190600190039081610c415790505b5090506000805b60018054905081101561107f578560018281548110610c8557610c84611d0e565b5b9060005260206000209060070201600101540361106c5760018181548110610cb057610caf611d0e565b5b90600052602060002090600702016040518060e0016040529081600082018054610cd9906119cd565b80601f0160208091040260200160405190810160405280929190818152602001828054610d05906119cd565b8015610d525780601f10610d2757610100808354040283529160200191610d52565b820191906000526020600020905b815481529060010190602001808311610d3557829003601f168201915b5050505050815260200160018201548152602001600282018054610d75906119cd565b80601f0160208091040260200160405190810160405280929190818152602001828054610da1906119cd565b8015610dee5780601f10610dc357610100808354040283529160200191610dee565b820191906000526020600020905b815481529060010190602001808311610dd157829003601f168201915b50505050508152602001600382018054610e07906119cd565b80601f0160208091040260200160405190810160405280929190818152602001828054610e33906119cd565b8015610e805780601f10610e5557610100808354040283529160200191610e80565b820191906000526020600020905b815481529060010190602001808311610e6357829003601f168201915b50505050508152602001600482018054610e99906119cd565b80601f0160208091040260200160405190810160405280929190818152602001828054610ec5906119cd565b8015610f125780601f10610ee757610100808354040283529160200191610f12565b820191906000526020600020905b815481529060010190602001808311610ef557829003601f168201915b50505050508152602001600582018054610f2b906119cd565b80601f0160208091040260200160405190810160405280929190818152602001828054610f57906119cd565b8015610fa45780601f10610f7957610100808354040283529160200191610fa4565b820191906000526020600020905b815481529060010190602001808311610f8757829003601f168201915b50505050508152602001600682018054610fbd906119cd565b80601f0160208091040260200160405190810160405280929190818152602001828054610fe9906119cd565b80156110365780601f1061100b57610100808354040283529160200191611036565b820191906000526020600020905b81548152906001019060200180831161101957829003601f168201915b50505050508152505083838151811061105257611051611d0e565b5b6020026020010181905250818061106890611d6c565b9250505b808061107790611d6c565b915050610c63565b50819350505050919050565b60008054906101000a900473ffffffffffffffffffffffffffffffffffffffff1673ffffffffffffffffffffffffffffffffffffffff163373ffffffffffffffffffffffffffffffffffffffff1614611119576040517f08c379a000000000000000000000000000000000000000000000000000000000815260040161111090611a70565b60405180910390fd5b60016040518060e00160405280888152602001878152602001868152602001858152602001848152602001604051806020016040528060008152508152602001838152509080600181540180825580915050600190039060005260206000209060070201600090919091909150600082015181600001908161119b9190611c3c565b506020820151816001015560408201518160020190816111bb9190611c3c565b5060608201518160030190816111d19190611c3c565b5060808201518160040190816111e79190611c3c565b5060a08201518160050190816111fd9190611c3c565b5060c08201518160060190816112139190611c3c565b505050505050505050565b6040518060e00160405280606081526020016000815260200160608152602001606081526020016060815260200160608152602001606081525090565b6000604051905090565b600080fd5b600080fd5b6000819050919050565b6112828161126f565b811461128d57600080fd5b50565b60008135905061129f81611279565b92915050565b6000602082840312156112bb576112ba611265565b5b60006112c984828501611290565b91505092915050565b600081519050919050565b600082825260208201905092915050565b60005b8381101561130c5780820151818401526020810190506112f1565b60008484015250505050565b6000601f19601f8301169050919050565b6000611334826112d2565b61133e81856112dd565b935061134e8185602086016112ee565b61135781611318565b840191505092915050565b61136b8161126f565b82525050565b600060e082019050818103600083015261138b818a611329565b905061139a6020830189611362565b81810360408301526113ac8188611329565b905081810360608301526113c08187611329565b905081810360808301526113d48186611329565b905081810360a08301526113e88185611329565b905081810360c08301526113fc8184611329565b905098975050505050505050565b600080fd5b600080fd5b7f4e487b7100000000000000000000000000000000000000000000000000000000600052604160045260246000fd5b61144c82611318565b810181811067ffffffffffffffff8211171561146b5761146a611414565b5b80604052505050565b600061147e61125b565b905061148a8282611443565b919050565b600067ffffffffffffffff8211156114aa576114a9611414565b5b6114b382611318565b9050602081019050919050565b82818337600083830152505050565b60006114e26114dd8461148f565b611474565b9050828152602081018484840111156114fe576114fd61140f565b5b6115098482856114c0565b509392505050565b600082601f8301126115265761152561140a565b5b81356115368482602086016114cf565b91505092915050565b600080600080600080600060e0888a03121561155e5761155d611265565b5b600088013567ffffffffffffffff81111561157c5761157b61126a565b5b6115888a828b01611511565b97505060206115998a828b01611290565b965050604088013567ffffffffffffffff8111156115ba576115b961126a565b5b6115c68a828b01611511565b955050606088013567ffffffffffffffff8111156115e7576115e661126a565b5b6115f38a828b01611511565b945050608088013567ffffffffffffffff8111156116145761161361126a565b5b6116208a828b01611511565b93505060a088013567ffffffffffffffff8111156116415761164061126a565b5b61164d8a828b01611511565b92505060c088013567ffffffffffffffff81111561166e5761166d61126a565b5b61167a8a828b01611511565b91505092959891949750929550565b600081519050919050565b600082825260208201905092915050565b6000819050602082019050919050565b600082825260208201905092915050565b60006116d1826112d2565b6116db81856116b5565b93506116eb8185602086016112ee565b6116f481611318565b840191505092915050565b6117088161126f565b82525050565b600060e083016000830151848203600086015261172b82826116c6565b915050602083015161174060208601826116ff565b506040830151848203604086015261175882826116c6565b9150506060830151848203606086015261177282826116c6565b9150506080830151848203608086015261178c82826116c6565b91505060a083015184820360a08601526117a682826116c6565b91505060c083015184820360c08601526117c082826116c6565b9150508091505092915050565b60006117d9838361170e565b905092915050565b6000602082019050919050565b60006117f982611689565b6118038185611694565b935083602082028501611815856116a5565b8060005b85811015611851578484038952815161183285826117cd565b945061183d836117e1565b925060208a01995050600181019050611819565b50829750879550505050505092915050565b6000602082019050818103600083015261187d81846117ee565b905092915050565b60008060008060008060c087890312156118a2576118a1611265565b5b600087013567ffffffffffffffff8111156118c0576118bf61126a565b5b6118cc89828a01611511565b96505060206118dd89828a01611290565b955050604087013567ffffffffffffffff8111156118fe576118fd61126a565b5b61190a89828a01611511565b945050606087013567ffffffffffffffff81111561192b5761192a61126a565b5b61193789828a01611511565b935050608087013567ffffffffffffffff8111156119585761195761126a565b5b61196489828a01611511565b92505060a087013567ffffffffffffffff8111156119855761198461126a565b5b61199189828a01611511565b9150509295509295509295565b7f4e487b7100000000000000000000000000000000000000000000000000000000600052602260045260246000fd5b600060028204905060018216806119e557607f821691505b6020821081036119f8576119f761199e565b5b50919050565b7f4f6e6c79206f776e65722063616e2063616c6c20746869732066756e6374696f60008201527f6e2e000000000000000000000000000000000000000000000000000000000000602082015250565b6000611a5a6022836112dd565b9150611a65826119fe565b604082019050919050565b60006020820190508181036000830152611a8981611a4d565b9050919050565b60008190508160005260206000209050919050565b60006020601f8301049050919050565b600082821b905092915050565b600060088302611af27fffffffffffffffffffffffffffffffffffffffffffffffffffffffffffffffff82611ab5565b611afc8683611ab5565b95508019841693508086168417925050509392505050565b6000819050919050565b6000611b39611b34611b2f8461126f565b611b14565b61126f565b9050919050565b6000819050919050565b611b5383611b1e565b611b67611b5f82611b40565b848454611ac2565b825550505050565b600090565b611b7c611b6f565b611b87818484611b4a565b505050565b5b81811015611bab57611ba0600082611b74565b600181019050611b8d565b5050565b601f821115611bf057611bc181611a90565b611bca84611aa5565b81016020851015611bd9578190505b611bed611be585611aa5565b830182611b8c565b50505b505050565b600082821c905092915050565b6000611c1360001984600802611bf5565b1980831691505092915050565b6000611c2c8383611c02565b9150826002028217905092915050565b611c45826112d2565b67ffffffffffffffff811115611c5e57611c5d611414565b5b611c6882546119cd565b611c73828285611baf565b600060209050601f831160018114611ca65760008415611c94578287015190505b611c9e8582611c20565b865550611d06565b601f198416611cb486611a90565b60005b82811015611cdc57848901518255600182019150602085019450602081019050611cb7565b86831015611cf95784890151611cf5601f891682611c02565b8355505b6001600288020188555050505b505050505050565b7f4e487b7100000000000000000000000000000000000000000000000000000000600052603260045260246000fd5b7f4e487b7100000000000000000000000000000000000000000000000000000000600052601160045260246000fd5b6000611d778261126f565b91507fffffffffffffffffffffffffffffffffffffffffffffffffffffffffffffffff8203611da957611da8611d3d565b5b60018201905091905056fea2646970667358221220718efd0c8aa7ab3ffc11f2e86b28644469ad9db2715915661c0d6b0f0a69d72a64736f6c63430008120033",
  "immutableReferences": {},
  "source": "// SPDX-License-Identifier: MIT\r\npragma solidity ^0.8.18;\r\n\r\ncontract EPB {\r\n    address internal owner;\r\n\r\n    constructor() {\r\n        owner = msg.sender;\r\n    }\r\n\r\n    modifier onlyOwner() {\r\n        require(msg.sender == owner, \"Only owner can call this function.\");\r\n        _;\r\n    }\r\n\r\n    struct Evidence {\r\n        string id;\r\n        uint case_no;\r\n        string case_name;\r\n        string file_name;\r\n        string file_type;\r\n        string file_hash_ipfs;\r\n        string status;\r\n    }\r\n\r\n    Evidence[] public evidences;\r\n\r\n    function insertEvidence(\r\n        string memory _id,\r\n        uint _caseNo,\r\n        string memory _caseName,\r\n        string memory _fileName,\r\n        string memory _fileType,\r\n        string memory _fileHash,\r\n        string memory _status\r\n    ) public onlyOwner {\r\n        evidences.push(\r\n            Evidence(\r\n                _id,\r\n                _caseNo,\r\n                _caseName,\r\n                _fileName,\r\n                _fileType,\r\n                _fileHash,\r\n                _status\r\n            )\r\n        );\r\n    }\r\n\r\n    function viewEvidence(\r\n        uint _caseNo\r\n    ) public view onlyOwner returns (EPB.Evidence[] memory) {\r\n        uint256 count = 0;\r\n        for (uint256 i = 0; i < evidences.length; i++) {\r\n            if (evidences[i].case_no == _caseNo) {\r\n                count++;\r\n            }\r\n        }\r\n        EPB.Evidence[] memory result = new EPB.Evidence[](count);\r\n        uint256 index = 0;\r\n        for (uint256 i = 0; i < evidences.length; i++) {\r\n            if (evidences[i].case_no == _caseNo) {\r\n                result[index] = evidences[i];\r\n                index++;\r\n            }\r\n        }\r\n        return result;\r\n    }\r\n\r\n    function viewEvidenceByCaseNo(\r\n        uint _caseNo\r\n    ) public view returns (Evidence[] memory) {\r\n        uint256 count = 0;\r\n        for (uint256 i = 0; i < evidences.length; i++) {\r\n            if (evidences[i].case_no == _caseNo) {\r\n                count++;\r\n            }\r\n        }\r\n        Evidence[] memory result = new Evidence[](count);\r\n        uint256 index = 0;\r\n        for (uint256 i = 0; i < evidences.length; i++) {\r\n            if (evidences[i].case_no == _caseNo) {\r\n                result[index] = evidences[i];\r\n                index++;\r\n            }\r\n        }\r\n        return result;\r\n    }\r\n\r\n    function insertNewEvidence(\r\n        string memory _id,\r\n        uint _caseNo,\r\n        string memory _caseName,\r\n        string memory _fileName,\r\n        string memory _fileType,\r\n        string memory _status\r\n    ) public onlyOwner {\r\n        evidences.push(\r\n            Evidence(_id, _caseNo, _caseName, _fileName, _fileType, \"\", _status)\r\n        );\r\n    }\r\n}\r\n",
  "sourcePath": "E:\\evidence-vault\\blockchain\\contracts\\EPB.sol",
  "compiler": {
    "name": "solc",
    "version": "0.8.18+commit.87f61d96.Emscripten.clang"
  },
  "schemaVersion": "3.4.12",
  "updatedAt": "2024-03-05T08:01:41.431Z",
  "networkType": "ethereum",
  "devdoc": {
    "kind": "dev",
    "methods": {},
    "version": 1
  },
  "userdoc": {
    "kind": "user",
    "methods": {},
    "version": 1
  }
}